{
  "contractName": "Passport",
  "abi": [
    {
      "inputs": [],
      "payable": false,
      "stateMutability": "nonpayable",
      "type": "constructor"
    },
    {
      "anonymous": false,
      "inputs": [
        {
          "indexed": false,
          "name": "addr",
          "type": "address"
        }
      ],
      "name": "LookUpEvent",
      "type": "event"
    },
    {
      "anonymous": false,
      "inputs": [
        {
          "indexed": false,
          "name": "addr",
          "type": "address"
        },
        {
          "indexed": false,
          "name": "name",
          "type": "string"
        }
      ],
      "name": "deliverPassportEvent",
      "type": "event"
    },
    {
      "anonymous": false,
      "inputs": [
        {
          "indexed": false,
          "name": "addr",
          "type": "address"
        }
      ],
      "name": "grantHospitalEvent",
      "type": "event"
    },
    {
      "anonymous": false,
      "inputs": [
        {
          "indexed": false,
          "name": "auth",
          "type": "address"
        },
        {
          "indexed": false,
          "name": "kind",
          "type": "string"
        },
        {
          "indexed": false,
          "name": "ID",
          "type": "address"
        },
        {
          "indexed": false,
          "name": "date",
          "type": "string"
        }
      ],
      "name": "HospitalSubmitInfomationEvent",
      "type": "event"
    },
    {
      "anonymous": false,
      "inputs": [],
      "name": "AuthorityGetUncheckedInjectionListEvent",
      "type": "event"
    },
    {
      "anonymous": false,
      "inputs": [
        {
          "indexed": false,
          "name": "i",
          "type": "uint256"
        },
        {
          "indexed": false,
          "name": "proposal",
          "type": "uint8"
        }
      ],
      "name": "AuthorityDisposeUncheckedInjectionEvent",
      "type": "event"
    },
    {
      "anonymous": false,
      "inputs": [
        {
          "indexed": false,
          "name": "addr",
          "type": "address"
        },
        {
          "indexed": false,
          "name": "totalStatus",
          "type": "uint8"
        }
      ],
      "name": "AuthorityChangeToatalStatusEvent",
      "type": "event"
    },
    {
      "anonymous": false,
      "inputs": [],
      "name": "VaccinatedOneGetHisPassportEvent",
      "type": "event"
    },
    {
      "anonymous": false,
      "inputs": [],
      "name": "VaccinatedOneGetListEvent",
      "type": "event"
    },
    {
      "anonymous": false,
      "inputs": [
        {
          "indexed": false,
          "name": "i",
          "type": "uint256"
        }
      ],
      "name": "showSpecificInjectionEvent",
      "type": "event"
    },
    {
      "constant": true,
      "inputs": [
        {
          "name": "addr",
          "type": "address"
        }
      ],
      "name": "LookUp",
      "outputs": [
        {
          "name": "ID",
          "type": "address"
        },
        {
          "name": "name",
          "type": "string"
        },
        {
          "name": "injectedIndex",
          "type": "uint256"
        },
        {
          "name": "totalStatus",
          "type": "uint8"
        }
      ],
      "payable": false,
      "stateMutability": "view",
      "type": "function"
    },
    {
      "constant": false,
      "inputs": [
        {
          "name": "addr",
          "type": "address"
        },
        {
          "name": "_name",
          "type": "string"
        }
      ],
      "name": "deliverPassport",
      "outputs": [],
      "payable": false,
      "stateMutability": "nonpayable",
      "type": "function"
    },
    {
      "constant": false,
      "inputs": [
        {
          "name": "addr",
          "type": "address"
        }
      ],
      "name": "grantHospitals",
      "outputs": [],
      "payable": false,
      "stateMutability": "nonpayable",
      "type": "function"
    },
    {
      "constant": false,
      "inputs": [
        {
          "name": "authorityAddr",
          "type": "address"
        },
        {
          "name": "kind",
          "type": "string"
        },
        {
          "name": "ID",
          "type": "address"
        },
        {
          "name": "date",
          "type": "string"
        }
      ],
      "name": "HospitalSubmitInfomation",
      "outputs": [
        {
          "name": "success",
          "type": "bool"
        }
      ],
      "payable": false,
      "stateMutability": "nonpayable",
      "type": "function"
    },
    {
      "constant": true,
      "inputs": [],
      "name": "AuthorityGetUncheckedInjectionList",
      "outputs": [
        {
          "name": "flist",
          "type": "uint256[]"
        },
        {
          "name": "cnt",
          "type": "uint256"
        },
        {
          "name": "totalCnt",
          "type": "uint256"
        },
        {
          "name": "herenumbersinWaitingList",
          "type": "uint256"
        }
      ],
      "payable": false,
      "stateMutability": "view",
      "type": "function"
    },
    {
      "constant": false,
      "inputs": [
        {
          "name": "i",
          "type": "uint256"
        },
        {
          "name": "proposal",
          "type": "uint8"
        }
      ],
      "name": "AuthorityDisposeUncheckedInjection",
      "outputs": [],
      "payable": false,
      "stateMutability": "nonpayable",
      "type": "function"
    },
    {
      "constant": false,
      "inputs": [
        {
          "name": "addr",
          "type": "address"
        },
        {
          "name": "totalStatus",
          "type": "uint8"
        }
      ],
      "name": "AuthorityChangeToatalStatus",
      "outputs": [],
      "payable": false,
      "stateMutability": "nonpayable",
      "type": "function"
    },
    {
      "constant": true,
      "inputs": [],
      "name": "VaccinatedOneGetHisPassport",
      "outputs": [
        {
          "name": "_ID",
          "type": "address"
        },
        {
          "name": "_name",
          "type": "string"
        },
        {
          "name": "_totalStatus",
          "type": "uint8"
        }
      ],
      "payable": false,
      "stateMutability": "view",
      "type": "function"
    },
    {
      "constant": true,
      "inputs": [],
      "name": "VaccinatedOneGetList",
      "outputs": [
        {
          "name": "list",
          "type": "uint256[]"
        }
      ],
      "payable": false,
      "stateMutability": "view",
      "type": "function"
    },
    {
      "constant": true,
      "inputs": [
        {
          "name": "i",
          "type": "uint256"
        }
      ],
      "name": "showSpecificInjection",
      "outputs": [
        {
          "name": "_InjectionID",
          "type": "uint256"
        },
        {
          "name": "_kind",
          "type": "string"
        },
        {
          "name": "_ID",
          "type": "address"
        },
        {
          "name": "_date",
          "type": "string"
        },
        {
          "name": "_injectedIndex",
          "type": "uint256"
        },
        {
          "name": "_InjectionStatus",
          "type": "uint8"
        }
      ],
      "payable": false,
      "stateMutability": "view",
      "type": "function"
    }
  ],
  "bytecode": "0x608060405234801561001057600080fd5b5033600090815260208181526040808320805460ff191660029081179091556004909252822082905581905561180290819061004c90396000f3fe60806040526004361061009d577c0100000000000000000000000000000000000000000000000000000000600035046333e18ec281146100a25780633cee809114610120578063481238a0146101855780635aedde68146101ba578063993db318146102755780639a081949146103b9578063a18e42ee1461047c578063a991d8b61461055c578063b7f1da101461058f578063cf26639b146105cb575b600080fd5b3480156100ae57600080fd5b506100b761073a565b6040518080602001858152602001848152602001838152602001828103825286818151815260200191508051906020019060200280838360005b838110156101095781810151838201526020016100f1565b505050509050019550505050505060405180910390f35b34801561012c57600080fd5b50610135610899565b60408051602080825283518183015283519192839290830191858101910280838360005b83811015610171578181015183820152602001610159565b505050509050019250505060405180910390f35b34801561019157600080fd5b506101b8600480360360208110156101a857600080fd5b5035600160a060020a031661090f565b005b3480156101c657600080fd5b506101cf610992565b6040518084600160a060020a0316600160a060020a03168152602001806020018360028111156101fb57fe5b60ff168152602001828103825284818151815260200191508051906020019080838360005b83811015610238578181015183820152602001610220565b50505050905090810190601f1680156102655780820380516001836020036101000a031916815260200191505b5094505050505060405180910390f35b34801561028157600080fd5b5061029f6004803603602081101561029857600080fd5b5035610a63565b604051808781526020018060200186600160a060020a0316600160a060020a03168152602001806020018581526020018460038111156102db57fe5b60ff168152602001838103835288818151815260200191508051906020019080838360005b83811015610318578181015183820152602001610300565b50505050905090810190601f1680156103455780820380516001836020036101000a031916815260200191505b50838103825286518152865160209182019188019080838360005b83811015610378578181015183820152602001610360565b50505050905090810190601f1680156103a55780820380516001836020036101000a031916815260200191505b509850505050505050505060405180910390f35b3480156103c557600080fd5b506101b8600480360360408110156103dc57600080fd5b600160a060020a03823516919081019060408101602082013564010000000081111561040757600080fd5b82018360208201111561041957600080fd5b8035906020019184600183028401116401000000008311171561043b57600080fd5b91908080601f016020809104026020016040519081016040528093929190818152602001838380828437600092019190915250929550610c7e945050505050565b34801561048857600080fd5b506104af6004803603602081101561049f57600080fd5b5035600160a060020a0316610e55565b6040518085600160a060020a0316600160a060020a03168152602001806020018481526020018360028111156104e157fe5b60ff168152602001828103825285818151815260200191508051906020019080838360005b8381101561051e578181015183820152602001610506565b50505050905090810190601f16801561054b5780820380516001836020036101000a031916815260200191505b509550505050505060405180910390f35b34801561056857600080fd5b506101b86004803603604081101561057f57600080fd5b508035906020013560ff16610f92565b34801561059b57600080fd5b506101b8600480360360408110156105b257600080fd5b508035600160a060020a0316906020013560ff1661123e565b3480156105d757600080fd5b50610726600480360360808110156105ee57600080fd5b600160a060020a03823516919081019060408101602082013564010000000081111561061957600080fd5b82018360208201111561062b57600080fd5b8035906020019184600183028401116401000000008311171561064d57600080fd5b91908080601f0160208091040260200160405190810160405280939291908181526020018383808284376000920191909152509295600160a060020a038535169590949093506040810192506020013590506401000000008111156106b157600080fd5b8201836020820111156106c357600080fd5b803590602001918460018302840111640100000000831117156106e557600080fd5b91908080601f016020809104026020016040519081016040528093929190818152602001838380828437600092019190915250929550611305945050505050565b604080519115158252519081900360200190f35b60606000808060023360009081526020819052604090205460ff16600281111561076057fe5b1461076a57600080fd5b604080516064808252610ca0820190925260609160208201610c808038833901905050600094508493509050825b3360009081526004602052604090205481101561080c5733600090815260036020818152604080842085855290915282206005015460ff16908111156107da57fe5b1415610800578082868151811015156107ef57fe5b602090810290910101526001909401935b60019384019301610798565b5083604051908082528060200260200182016040528015610837578160200160208202803883390190505b50945060005b8481101561087d57818181518110151561085357fe5b90602001906020020151868281518110151561086b57fe5b6020908102909101015260010161083d565b5050336000908152600460205260409020549394929391929050565b336000908152600160209081526040918290206003015482518181528183028101909201909252606091908180156108db578160200160208202803883390190505b50915060005b8181101561090a578083828151811015156108f857fe5b602090810290910101526001016108e1565b505090565b60023360009081526020819052604090205460ff16600281111561092f57fe5b1461093957600080fd5b600160a060020a03811660008181526020818152604091829020805460ff19166001179055815192835290517f66535a8a8764f7f760ea867a7644c3e19c88f8152c8df80a9b10d22f8185f6b59281900390910190a150565b336000908152600160208181526040808420805490840180548351600261010097831615979097026000190190911695909504601f8101859004850286018501909352828552600160a060020a03909116946060949093909290830182828015610a3d5780601f10610a1257610100808354040283529160200191610a3d565b820191906000526020600020905b815481529060010190602001808311610a2057829003601f168201915b5050336000908152600160205260409020600401549697939660ff169550929350505050565b336000908152600160208181526040808420858552600290810183528185208054908501805484519681161561010002600019011692909204601f810185900485028601850190935282855294606094909385938593849392909190830182828015610b105780601f10610ae557610100808354040283529160200191610b10565b820191906000526020600020905b815481529060010190602001808311610af357829003601f168201915b505050505094506001600033600160a060020a0316600160a060020a03168152602001908152602001600020600201600088815260200190815260200160002060020160009054906101000a9004600160a060020a031693506001600033600160a060020a0316600160a060020a0316815260200190815260200160002060020160008881526020019081526020016000206003018054600181600116156101000203166002900480601f016020809104026020016040519081016040528092919081815260200182805460018160011615610100020316600290048015610c395780601f10610c0e57610100808354040283529160200191610c39565b820191906000526020600020905b815481529060010190602001808311610c1c57829003601f168201915b50503360009081526001602090815260408083209d83526002909d0190529a909a206004810154600590910154999b989a509698929760ff9093169550919350505050565b60023360009081526020819052604090205460ff166002811115610c9e57fe5b1480610cc7575060013360009081526020819052604090205460ff166002811115610cc557fe5b145b1515610cd257600080fd5b610cda6116cd565b60806040519081016040528084600160a060020a031681526020018381526020016000815260200160006002811115610d0f57fe5b9052600160a060020a0384811660009081526001602081815260409092208451815473ffffffffffffffffffffffffffffffffffffffff191694169390931783558382015180519495508594610d6d939285019291909101906116f6565b5060408201516003820155606082015160048201805460ff19166001836002811115610d9557fe5b02179055509050507fe61bfdc34d72cc2bc50243ccffe00927fc04b0cfb0ffb749f2022146705cc9db83836040518083600160a060020a0316600160a060020a0316815260200180602001828103825283818151815260200191508051906020019080838360005b83811015610e15578181015183820152602001610dfd565b50505050905090810190601f168015610e425780820380516001836020036101000a031916815260200191505b50935050505060405180910390a1505050565b60006060818060023360009081526020819052604090205460ff166002811115610e7b57fe5b1480610ea4575060013360009081526020819052604090205460ff166002811115610ea257fe5b145b1515610eaf57600080fd5b600160a060020a03858116600090815260016020818152604092839020805490830180548551600261010096831615969096026000190190911694909404601f81018490048402850184019095528484529416975090929190830182828015610f595780601f10610f2e57610100808354040283529160200191610f59565b820191906000526020600020905b815481529060010190602001808311610f3c57829003601f168201915b505050600160a060020a039097166000908152600160205260409020600381015460049091015496989297509560ff1694509092505050565b60023360009081526020819052604090205460ff166002811115610fb257fe5b14610fbc57600080fd5b610fc4611774565b336000908152600360209081526040808320868452825291829020825160c08101845281548152600180830180548651600293821615610100026000190190911692909204601f81018690048602830186019096528582529194929385810193919291908301828280156110795780601f1061104e57610100808354040283529160200191611079565b820191906000526020600020905b81548152906001019060200180831161105c57829003601f168201915b5050509183525050600282810154600160a060020a031660208084019190915260038401805460408051601f600019600185161561010002019093169590950491820184900484028501840181528185529094019390918301828280156111215780601f106110f657610100808354040283529160200191611121565b820191906000526020600020905b81548152906001019060200180831161110457829003601f168201915b505050918352505060048201546020820152600582015460409091019060ff16600381111561114c57fe5b600381111561115757fe5b9052506040808201516080830151336000908152600360208181528583208a8452905293902060050180549495509193909286929160ff191690600190849081111561119f57fe5b0217905550600160a060020a03821660009081526001602081815260408084208585526002019091529091206005018054869260ff19909116908360038111156111e557fe5b02179055507ff5f24a1076534f6f9f4222697fb06dde0123693df905bd676ad64f43d73ec07885856040518083815260200182600381111561122357fe5b60ff1681526020019250505060405180910390a15050505050565b60023360009081526020819052604090205460ff16600281111561125e57fe5b1461126857600080fd5b600160a060020a03821660009081526001602081905260409091206004018054839260ff199091169083600281111561129d57fe5b02179055507ffa68b90eaad7c7fc339c801e2338d7ea6f8135e4d710c20a7898de2982e3021682826040518083600160a060020a0316600160a060020a031681526020018260028111156112ed57fe5b60ff1681526020019250505060405180910390a15050565b600060013360009081526020819052604090205460ff16600281111561132757fe5b1461133157600080fd5b5060006002600160a060020a03861660009081526020819052604090205460ff16600281111561135d57fe5b1461136757600080fd5b600160a060020a038086166000908152600460209081526040808320549387168352600190915290206003015461139c611774565b60c060405190810160405280600254815260200188815260200187600160a060020a03168152602001868152602001838152602001600060038111156113de57fe5b9052600160a060020a038716600090815260016020818152604080842087855260020182529092208351815582840151805194955085949193611426938501929101906116f6565b50604082015160028201805473ffffffffffffffffffffffffffffffffffffffff1916600160a060020a03909216919091179055606082015180516114759160038401916020909101906116f6565b506080820151600482015560a082015160058201805460ff1916600183600381111561149d57fe5b02179055505050600160a060020a038816600090815260036020908152604080832086845282529091208251815581830151805184936114e49260018501929101906116f6565b50604082015160028201805473ffffffffffffffffffffffffffffffffffffffff1916600160a060020a03909216919091179055606082015180516115339160038401916020909101906116f6565b506080820151600482015560a082015160058201805460ff1916600183600381111561155b57fe5b02179055505050600160a060020a0380871660008181526001602081815260408084209783016003909801889055948d1680845260048252858420988301988990556002805490930190925584519182529381019290925260808284018181528b51918401919091528a517f60e56e9cbbc474b66433a92cfcd40fb523e7fc374de5360a9d6e2610046f1a64948d948d948d948d9492939092606085019260a0860192890191908190849084905b83811015611621578181015183820152602001611609565b50505050905090810190601f16801561164e5780820380516001836020036101000a031916815260200191505b50838103825284518152845160209182019186019080838360005b83811015611681578181015183820152602001611669565b50505050905090810190601f1680156116ae5780820380516001836020036101000a031916815260200191505b50965050505050505060405180910390a1506001979650505050505050565b60408051608081018252600080825260606020830181905292820181905290918201905b905290565b828054600181600116156101000203166002900490600052602060002090601f016020900481019282601f1061173757805160ff1916838001178555611764565b82800160010185558215611764579182015b82811115611764578251825591602001919060010190611749565b506117709291506117b9565b5090565b60c06040519081016040528060008152602001606081526020016000600160a060020a031681526020016060815260200160008152602001600060038111156116f157fe5b6117d391905b8082111561177057600081556001016117bf565b9056fea165627a7a723058202c716fc32058d7a2ed7557a15f3567e9b0c2ac6fb2a3270544e53362f1bb57f80029",
  "source": "pragma solidity ^0.5.1;\r\n\r\nimport \"./IterableMapping.sol\";\r\n\r\ncontract Passport{\r\n    \r\n    enum Identity {VaccinatedOne,Hospital,Authority}\r\n    //1.mapping(address=>identity(H/A/O)) to verify his access, used to modifier\r\n    mapping(address=>Identity) identity;\r\n\r\n    //2.mapping(address=>passport)\r\n    mapping(address=>PersonalPassport) personalPassport; \r\n\r\n    enum TotalStatus{haventVaccinated, waitingVaccinationAndAuthority, vaccinated}\r\n    //3.PersonalPassport: \r\n    struct PersonalPassport{\r\n        address ID;\r\n        string name;\r\n        mapping(uint=>Injection) injectionInfo;\r\n        uint injectionIndex;\r\n        TotalStatus totalStatus;\r\n    }\r\n\r\n    \r\n    \r\n    enum InjectionStatus{injected, authorithed, outdated, unvalid}\r\n    //4.Injection:\r\n    struct Injection{\r\n        uint256 InjectionID;\r\n        string kind;\r\n        address ID;\r\n        string date;\r\n        uint injectedIndex;\r\n        InjectionStatus injectionStatus;\r\n    }\r\n    uint256 InjectionID;\r\n\r\n    //5.To show specific Auhority the injection he is responsible for and not authorithed \r\n    mapping(address=>mapping(uint=>Injection)) waitingList;\r\n    mapping(address=>uint) numbersInWaitingList;\r\n\r\n    modifier isHospital(){\r\n        require(identity[msg.sender]==Identity.Hospital);\r\n        _;\r\n    }\r\n    modifier isAuthority(){\r\n        require(identity[msg.sender]==Identity.Authority);\r\n        _;\r\n    }\r\n    modifier havingAccess(){\r\n        require((identity[msg.sender]==Identity.Authority)||(identity[msg.sender]==Identity.Hospital));\r\n        _;\r\n    }\r\n\r\n\r\n    event LookUpEvent(address addr);\r\n    event deliverPassportEvent(address addr, string name);\r\n    event grantHospitalEvent(address addr);\r\n    event HospitalSubmitInfomationEvent(address auth, string kind, address ID, string date);\r\n    event AuthorityGetUncheckedInjectionListEvent();\r\n    event AuthorityDisposeUncheckedInjectionEvent(uint i, InjectionStatus proposal);\r\n    event AuthorityChangeToatalStatusEvent(address addr, TotalStatus totalStatus);\r\n    event VaccinatedOneGetHisPassportEvent();\r\n    event VaccinatedOneGetListEvent();\r\n    event showSpecificInjectionEvent(uint i);\r\n\r\n\r\n    constructor() public{\r\n        identity[msg.sender]=Identity.Authority;\r\n        numbersInWaitingList[msg.sender]=0;\r\n        //Auhority 0xd16AAecB76318c363F5dfb6bA192163a3695d4d8\r\n        //Hospital 0x9a6536b20EE818899C7026925AAfA27A656c32f8\r\n        //user     0x7Ddf0cd1f0D562F73C27F662ca389c72553B5470\r\n        //user2    0x4004b49c9DC5217b752b586894c5269f37d917b8\r\n        \r\n        //identity[0x9a6536b20EE818899C7026925AAfA27A656c32f8]=Identity.Hospital;\r\n        InjectionID=0;\r\n    }\r\n    \r\n\r\n\r\n\r\n\r\n    function LookUp(address addr) public view havingAccess returns(address ID, string memory name, uint injectedIndex,TotalStatus totalStatus){\r\n        //emit LookUpEvent(addr);\r\n        ID = personalPassport[addr].ID;\r\n        name = personalPassport[addr].name;\r\n        injectedIndex = personalPassport[addr].injectionIndex;\r\n        totalStatus = personalPassport[addr].totalStatus;\r\n    }\r\n    function deliverPassport(address addr,string memory _name) public havingAccess{\r\n        PersonalPassport memory apassport=PersonalPassport({ID:addr,name:_name,injectionIndex:0,totalStatus:TotalStatus.haventVaccinated});\r\n        personalPassport[addr]=apassport;\r\n        emit deliverPassportEvent(addr, _name);\r\n    }\r\n    function grantHospitals(address addr) public isAuthority{\r\n        identity[addr]=Identity.Hospital;\r\n        emit grantHospitalEvent(addr);\r\n    }\r\n\r\n    function HospitalSubmitInfomation(address authorityAddr, string memory kind, address ID,string memory date) public isHospital returns(bool success){\r\n        success=false;\r\n        require(identity[authorityAddr]==Identity.Authority);\r\n        \r\n        uint number = numbersInWaitingList[authorityAddr];\r\n        uint injectedNumber=personalPassport[ID].injectionIndex;\r\n        \r\n        Injection memory injection=Injection(InjectionID,kind,ID,date,injectedNumber,InjectionStatus.injected);\r\n\r\n        \r\n        personalPassport[ID].injectionInfo[injectedNumber]=injection;\r\n        waitingList[authorityAddr][number]=injection;\r\n\r\n        number=number+1;\r\n        injectedNumber=injectedNumber+1;\r\n        personalPassport[ID].injectionIndex=injectedNumber;\r\n        numbersInWaitingList[authorityAddr]=number;\r\n\r\n        InjectionID++;\r\n\r\n        emit HospitalSubmitInfomationEvent(authorityAddr, kind, ID, date);\r\n        success=true;\r\n    }\r\n\r\n\r\n    \r\n    function AuthorityGetUncheckedInjectionList() public view isAuthority returns(uint[] memory flist,uint cnt,uint totalCnt,uint herenumbersinWaitingList){\r\n        uint[] memory list=new uint[](100);\r\n        totalCnt=0;\r\n        cnt=0;\r\n        for(uint i=0;i<numbersInWaitingList[msg.sender];i++){\r\n            if(waitingList[msg.sender][i].injectionStatus==InjectionStatus.injected){\r\n               list[cnt]=i;\r\n               cnt++;\r\n            }\r\n            totalCnt++;\r\n        }\r\n        flist=new uint[](cnt);\r\n        for(uint i=0;i<cnt;i++){\r\n            flist[i]=list[i];\r\n        }\r\n        herenumbersinWaitingList = numbersInWaitingList[msg.sender];\r\n        //emit AuthorityGetUncheckedInjectionListEvent();\r\n    }\r\n\r\n    function AuthorityDisposeUncheckedInjection(uint i, InjectionStatus proposal) public isAuthority {\r\n        Injection memory injection=waitingList[msg.sender][i];\r\n        address ID=injection.ID;\r\n        // uint256 InjectionID=injection.InjectionID;\r\n        uint injectedIndex=injection.injectedIndex;\r\n\r\n        waitingList[msg.sender][i].injectionStatus=proposal;\r\n\r\n        personalPassport[ID].injectionInfo[injectedIndex].injectionStatus=proposal;\r\n        emit AuthorityDisposeUncheckedInjectionEvent(i, proposal);\r\n\r\n    }\r\n\r\n    function AuthorityChangeToatalStatus(address addr,TotalStatus totalStatus) public isAuthority{\r\n        personalPassport[addr].totalStatus=totalStatus;\r\n        emit AuthorityChangeToatalStatusEvent(addr, totalStatus);\r\n    }\r\n\r\n    function VaccinatedOneGetHisPassport() public view returns(address _ID, string memory _name, TotalStatus _totalStatus){\r\n        //emit VaccinatedOneGetHisPassportEvent();\r\n        \r\n        _ID=personalPassport[msg.sender].ID;\r\n        _name=personalPassport[msg.sender].name;\r\n        _totalStatus=personalPassport[msg.sender].totalStatus;\r\n    } \r\n\r\n    function VaccinatedOneGetList() public view returns(uint[] memory list){\r\n        uint nums=personalPassport[msg.sender].injectionIndex;\r\n        list=new uint[](nums);\r\n        for(uint i=0;i<nums;i++){\r\n            list[i]=i;\r\n        }\r\n        //emit VaccinatedOneGetListEvent();\r\n    }\r\n\r\n    function showSpecificInjection(uint i) public view returns(uint256 _InjectionID,string memory _kind,address _ID,string memory _date,uint _injectedIndex,InjectionStatus _InjectionStatus){\r\n        //emit showSpecificInjectionEvent(i);\r\n        \r\n        _InjectionID=personalPassport[msg.sender].injectionInfo[i].InjectionID;\r\n        _kind=personalPassport[msg.sender].injectionInfo[i].kind;\r\n        _ID=personalPassport[msg.sender].injectionInfo[i].ID;\r\n        _date=personalPassport[msg.sender].injectionInfo[i].date;\r\n        _injectedIndex=personalPassport[msg.sender].injectionInfo[i].injectedIndex;\r\n        _InjectionStatus=personalPassport[msg.sender].injectionInfo[i].injectionStatus;\r\n    }\r\n\r\n}\r\n\r\n\r\n\r\n\r\n\r\n\r\n",
  "sourcePath": "E:\\ethereum\\VaccinePassportDapp\\contracts\\Passport.sol",
  "compiler": {
    "name": "solc",
    "version": "0.5.1+commit.c8a2cb62.Emscripten.clang"
  },
  "schemaVersion": "3.4.3",
  "updatedAt": "2021-09-15T10:23:39.623Z",
  "devdoc": {
    "methods": {}
  },
  "userdoc": {
    "methods": {}
  }
}