{
  "contractName": "Passport",
  "abi": [
    {
      "inputs": [],
      "payable": false,
      "stateMutability": "nonpayable",
      "type": "constructor"
    },
    {
      "anonymous": false,
      "inputs": [
        {
          "indexed": false,
          "name": "addr",
          "type": "address"
        }
      ],
      "name": "LookUpEvent",
      "type": "event"
    },
    {
      "anonymous": false,
      "inputs": [
        {
          "indexed": false,
          "name": "addr",
          "type": "address"
        },
        {
          "indexed": false,
          "name": "name",
          "type": "string"
        }
      ],
      "name": "deliverPassportEvent",
      "type": "event"
    },
    {
      "anonymous": false,
      "inputs": [
        {
          "indexed": false,
          "name": "addr",
          "type": "address"
        }
      ],
      "name": "grantHospitalEvent",
      "type": "event"
    },
    {
      "anonymous": false,
      "inputs": [
        {
          "indexed": false,
          "name": "addr",
          "type": "address"
        }
      ],
      "name": "grantAuthorityEvent",
      "type": "event"
    },
    {
      "anonymous": false,
      "inputs": [
        {
          "indexed": false,
          "name": "auth",
          "type": "address"
        },
        {
          "indexed": false,
          "name": "kind",
          "type": "string"
        },
        {
          "indexed": false,
          "name": "ID",
          "type": "address"
        },
        {
          "indexed": false,
          "name": "date",
          "type": "string"
        }
      ],
      "name": "HospitalSubmitInfomationEvent",
      "type": "event"
    },
    {
      "anonymous": false,
      "inputs": [],
      "name": "AuthorityGetUncheckedInjectionListEvent",
      "type": "event"
    },
    {
      "anonymous": false,
      "inputs": [
        {
          "indexed": false,
          "name": "i",
          "type": "uint256"
        },
        {
          "indexed": false,
          "name": "proposal",
          "type": "uint8"
        }
      ],
      "name": "AuthorityDisposeUncheckedInjectionEvent",
      "type": "event"
    },
    {
      "anonymous": false,
      "inputs": [
        {
          "indexed": false,
          "name": "addr",
          "type": "address"
        },
        {
          "indexed": false,
          "name": "totalStatus",
          "type": "uint8"
        }
      ],
      "name": "AuthorityChangeToatalStatusEvent",
      "type": "event"
    },
    {
      "anonymous": false,
      "inputs": [],
      "name": "VaccinatedOneGetHisPassportEvent",
      "type": "event"
    },
    {
      "anonymous": false,
      "inputs": [],
      "name": "VaccinatedOneGetListEvent",
      "type": "event"
    },
    {
      "anonymous": false,
      "inputs": [
        {
          "indexed": false,
          "name": "i",
          "type": "uint256"
        }
      ],
      "name": "showSpecificInjectionEvent",
      "type": "event"
    },
    {
      "constant": true,
      "inputs": [],
      "name": "testt",
      "outputs": [
        {
          "name": "n",
          "type": "uint256"
        }
      ],
      "payable": false,
      "stateMutability": "view",
      "type": "function"
    },
    {
      "constant": true,
      "inputs": [
        {
          "name": "addr",
          "type": "address"
        }
      ],
      "name": "LookUp",
      "outputs": [
        {
          "name": "ID",
          "type": "address"
        },
        {
          "name": "name",
          "type": "string"
        },
        {
          "name": "injectedIndex",
          "type": "uint256"
        },
        {
          "name": "totalStatus",
          "type": "uint8"
        }
      ],
      "payable": false,
      "stateMutability": "view",
      "type": "function"
    },
    {
      "constant": false,
      "inputs": [
        {
          "name": "addr",
          "type": "address"
        },
        {
          "name": "_name",
          "type": "string"
        }
      ],
      "name": "deliverPassport",
      "outputs": [],
      "payable": false,
      "stateMutability": "nonpayable",
      "type": "function"
    },
    {
      "constant": false,
      "inputs": [
        {
          "name": "addr",
          "type": "address"
        }
      ],
      "name": "grantHospitals",
      "outputs": [],
      "payable": false,
      "stateMutability": "nonpayable",
      "type": "function"
    },
    {
      "constant": false,
      "inputs": [
        {
          "name": "addr",
          "type": "address"
        }
      ],
      "name": "grantAuthority",
      "outputs": [],
      "payable": false,
      "stateMutability": "nonpayable",
      "type": "function"
    },
    {
      "constant": false,
      "inputs": [
        {
          "name": "authorityAddr",
          "type": "address"
        },
        {
          "name": "kind",
          "type": "string"
        },
        {
          "name": "ID",
          "type": "address"
        },
        {
          "name": "date",
          "type": "string"
        }
      ],
      "name": "HospitalSubmitInfomation",
      "outputs": [
        {
          "name": "success",
          "type": "bool"
        }
      ],
      "payable": false,
      "stateMutability": "nonpayable",
      "type": "function"
    },
    {
      "constant": true,
      "inputs": [],
      "name": "AuthorityGetUncheckedInjectionList",
      "outputs": [
        {
          "name": "flist",
          "type": "uint256[]"
        },
        {
          "name": "cnt",
          "type": "uint256"
        },
        {
          "name": "totalCnt",
          "type": "uint256"
        },
        {
          "name": "herenumbersinWaitingList",
          "type": "uint256"
        }
      ],
      "payable": false,
      "stateMutability": "view",
      "type": "function"
    },
    {
      "constant": false,
      "inputs": [
        {
          "name": "i",
          "type": "uint256"
        },
        {
          "name": "proposal",
          "type": "uint8"
        }
      ],
      "name": "AuthorityDisposeUncheckedInjection",
      "outputs": [],
      "payable": false,
      "stateMutability": "nonpayable",
      "type": "function"
    },
    {
      "constant": false,
      "inputs": [
        {
          "name": "addr",
          "type": "address"
        },
        {
          "name": "totalStatus",
          "type": "uint8"
        }
      ],
      "name": "AuthorityChangeToatalStatus",
      "outputs": [],
      "payable": false,
      "stateMutability": "nonpayable",
      "type": "function"
    },
    {
      "constant": true,
      "inputs": [],
      "name": "VaccinatedOneGetHisPassport",
      "outputs": [
        {
          "name": "_ID",
          "type": "address"
        },
        {
          "name": "_name",
          "type": "string"
        },
        {
          "name": "_totalStatus",
          "type": "uint8"
        }
      ],
      "payable": false,
      "stateMutability": "view",
      "type": "function"
    },
    {
      "constant": true,
      "inputs": [],
      "name": "VaccinatedOneGetList",
      "outputs": [
        {
          "name": "list",
          "type": "uint256[]"
        }
      ],
      "payable": false,
      "stateMutability": "view",
      "type": "function"
    },
    {
      "constant": true,
      "inputs": [
        {
          "name": "i",
          "type": "uint256"
        }
      ],
      "name": "showSpecificInjection",
      "outputs": [
        {
          "name": "_InjectionID",
          "type": "uint256"
        },
        {
          "name": "_kind",
          "type": "string"
        },
        {
          "name": "_ID",
          "type": "address"
        },
        {
          "name": "_date",
          "type": "string"
        },
        {
          "name": "_injectedIndex",
          "type": "uint256"
        },
        {
          "name": "_InjectionStatus",
          "type": "uint8"
        }
      ],
      "payable": false,
      "stateMutability": "view",
      "type": "function"
    }
  ],
  "bytecode": "0x608060405234801561001057600080fd5b5033600090815260208181526040808320805460ff191660029081179091556004909252822082905581905561190290819061004c90396000f3fe6080604052600436106100b3577c0100000000000000000000000000000000000000000000000000000000600035046333e18ec281146100b85780633cee809114610136578063481238a01461019b57806354e677f4146101d0578063578a34ce146102035780635aedde681461022a578063993db318146102e55780639a08194914610429578063a18e42ee146104ec578063a991d8b6146105cc578063b7f1da10146105ff578063cf26639b1461063b575b600080fd5b3480156100c457600080fd5b506100cd6107aa565b6040518080602001858152602001848152602001838152602001828103825286818151815260200191508051906020019060200280838360005b8381101561011f578181015183820152602001610107565b505050509050019550505050505060405180910390f35b34801561014257600080fd5b5061014b610909565b60408051602080825283518183015283519192839290830191858101910280838360005b8381101561018757818101518382015260200161016f565b505050509050019250505060405180910390f35b3480156101a757600080fd5b506101ce600480360360208110156101be57600080fd5b5035600160a060020a031661097f565b005b3480156101dc57600080fd5b506101ce600480360360208110156101f357600080fd5b5035600160a060020a0316610a02565b34801561020f57600080fd5b50610218610a85565b60408051918252519081900360200190f35b34801561023657600080fd5b5061023f610a8a565b6040518084600160a060020a0316600160a060020a031681526020018060200183600281111561026b57fe5b60ff168152602001828103825284818151815260200191508051906020019080838360005b838110156102a8578181015183820152602001610290565b50505050905090810190601f1680156102d55780820380516001836020036101000a031916815260200191505b5094505050505060405180910390f35b3480156102f157600080fd5b5061030f6004803603602081101561030857600080fd5b5035610b5b565b604051808781526020018060200186600160a060020a0316600160a060020a031681526020018060200185815260200184600381111561034b57fe5b60ff168152602001838103835288818151815260200191508051906020019080838360005b83811015610388578181015183820152602001610370565b50505050905090810190601f1680156103b55780820380516001836020036101000a031916815260200191505b50838103825286518152865160209182019188019080838360005b838110156103e85781810151838201526020016103d0565b50505050905090810190601f1680156104155780820380516001836020036101000a031916815260200191505b509850505050505050505060405180910390f35b34801561043557600080fd5b506101ce6004803603604081101561044c57600080fd5b600160a060020a03823516919081019060408101602082013564010000000081111561047757600080fd5b82018360208201111561048957600080fd5b803590602001918460018302840111640100000000831117156104ab57600080fd5b91908080601f016020809104026020016040519081016040528093929190818152602001838380828437600092019190915250929550610d76945050505050565b3480156104f857600080fd5b5061051f6004803603602081101561050f57600080fd5b5035600160a060020a0316610f4d565b6040518085600160a060020a0316600160a060020a031681526020018060200184815260200183600281111561055157fe5b60ff168152602001828103825285818151815260200191508051906020019080838360005b8381101561058e578181015183820152602001610576565b50505050905090810190601f1680156105bb5780820380516001836020036101000a031916815260200191505b509550505050505060405180910390f35b3480156105d857600080fd5b506101ce600480360360408110156105ef57600080fd5b508035906020013560ff1661108a565b34801561060b57600080fd5b506101ce6004803603604081101561062257600080fd5b508035600160a060020a0316906020013560ff1661133e565b34801561064757600080fd5b506107966004803603608081101561065e57600080fd5b600160a060020a03823516919081019060408101602082013564010000000081111561068957600080fd5b82018360208201111561069b57600080fd5b803590602001918460018302840111640100000000831117156106bd57600080fd5b91908080601f0160208091040260200160405190810160405280939291908181526020018383808284376000920191909152509295600160a060020a0385351695909490935060408101925060200135905064010000000081111561072157600080fd5b82018360208201111561073357600080fd5b8035906020019184600183028401116401000000008311171561075557600080fd5b91908080601f016020809104026020016040519081016040528093929190818152602001838380828437600092019190915250929550611405945050505050565b604080519115158252519081900360200190f35b60606000808060023360009081526020819052604090205460ff1660028111156107d057fe5b146107da57600080fd5b604080516064808252610ca0820190925260609160208201610c808038833901905050600094508493509050825b3360009081526004602052604090205481101561087c5733600090815260036020818152604080842085855290915282206005015460ff169081111561084a57fe5b14156108705780828681518110151561085f57fe5b602090810290910101526001909401935b60019384019301610808565b50836040519080825280602002602001820160405280156108a7578160200160208202803883390190505b50945060005b848110156108ed5781818151811015156108c357fe5b9060200190602002015186828151811015156108db57fe5b602090810290910101526001016108ad565b5050336000908152600460205260409020549394929391929050565b3360009081526001602090815260409182902060030154825181815281830281019092019092526060919081801561094b578160200160208202803883390190505b50915060005b8181101561097a5780838281518110151561096857fe5b60209081029091010152600101610951565b505090565b60023360009081526020819052604090205460ff16600281111561099f57fe5b146109a957600080fd5b600160a060020a03811660008181526020818152604091829020805460ff19166001179055815192835290517f66535a8a8764f7f760ea867a7644c3e19c88f8152c8df80a9b10d22f8185f6b59281900390910190a150565b60023360009081526020819052604090205460ff166002811115610a2257fe5b14610a2c57600080fd5b600160a060020a03811660008181526020818152604091829020805460ff19166002179055815192835290517f9a1ddf4b9c86ef5d56e3a5095886e299a9085c3db06b0550a470810714d048129281900390910190a150565b600290565b336000908152600160208181526040808420805490840180548351600261010097831615979097026000190190911695909504601f8101859004850286018501909352828552600160a060020a03909116946060949093909290830182828015610b355780601f10610b0a57610100808354040283529160200191610b35565b820191906000526020600020905b815481529060010190602001808311610b1857829003601f168201915b5050336000908152600160205260409020600401549697939660ff169550929350505050565b336000908152600160208181526040808420858552600290810183528185208054908501805484519681161561010002600019011692909204601f810185900485028601850190935282855294606094909385938593849392909190830182828015610c085780601f10610bdd57610100808354040283529160200191610c08565b820191906000526020600020905b815481529060010190602001808311610beb57829003601f168201915b505050505094506001600033600160a060020a0316600160a060020a03168152602001908152602001600020600201600088815260200190815260200160002060020160009054906101000a9004600160a060020a031693506001600033600160a060020a0316600160a060020a0316815260200190815260200160002060020160008881526020019081526020016000206003018054600181600116156101000203166002900480601f016020809104026020016040519081016040528092919081815260200182805460018160011615610100020316600290048015610d315780601f10610d0657610100808354040283529160200191610d31565b820191906000526020600020905b815481529060010190602001808311610d1457829003601f168201915b50503360009081526001602090815260408083209d83526002909d0190529a909a206004810154600590910154999b989a509698929760ff9093169550919350505050565b60023360009081526020819052604090205460ff166002811115610d9657fe5b1480610dbf575060013360009081526020819052604090205460ff166002811115610dbd57fe5b145b1515610dca57600080fd5b610dd26117cd565b60806040519081016040528084600160a060020a031681526020018381526020016000815260200160006002811115610e0757fe5b9052600160a060020a0384811660009081526001602081815260409092208451815473ffffffffffffffffffffffffffffffffffffffff191694169390931783558382015180519495508594610e65939285019291909101906117f6565b5060408201516003820155606082015160048201805460ff19166001836002811115610e8d57fe5b02179055509050507fe61bfdc34d72cc2bc50243ccffe00927fc04b0cfb0ffb749f2022146705cc9db83836040518083600160a060020a0316600160a060020a0316815260200180602001828103825283818151815260200191508051906020019080838360005b83811015610f0d578181015183820152602001610ef5565b50505050905090810190601f168015610f3a5780820380516001836020036101000a031916815260200191505b50935050505060405180910390a1505050565b60006060818060023360009081526020819052604090205460ff166002811115610f7357fe5b1480610f9c575060013360009081526020819052604090205460ff166002811115610f9a57fe5b145b1515610fa757600080fd5b600160a060020a03858116600090815260016020818152604092839020805490830180548551600261010096831615969096026000190190911694909404601f810184900484028501840190955284845294169750909291908301828280156110515780601f1061102657610100808354040283529160200191611051565b820191906000526020600020905b81548152906001019060200180831161103457829003601f168201915b505050600160a060020a039097166000908152600160205260409020600381015460049091015496989297509560ff1694509092505050565b60023360009081526020819052604090205460ff1660028111156110aa57fe5b146110b457600080fd5b6110bc611874565b336000908152600360209081526040808320868452825291829020825160c08101845281548152600180830180548651600293821615610100026000190190911692909204601f81018690048602830186019096528582529194929385810193919291908301828280156111715780601f1061114657610100808354040283529160200191611171565b820191906000526020600020905b81548152906001019060200180831161115457829003601f168201915b5050509183525050600282810154600160a060020a031660208084019190915260038401805460408051601f600019600185161561010002019093169590950491820184900484028501840181528185529094019390918301828280156112195780601f106111ee57610100808354040283529160200191611219565b820191906000526020600020905b8154815290600101906020018083116111fc57829003601f168201915b505050918352505060048201546020820152600582015460409091019060ff16600381111561124457fe5b600381111561124f57fe5b90525060408082015182516080840151336000908152600360208181528683208b8452905294902060050180549596509294919390928792909160ff1990911690600190849081111561129e57fe5b0217905550600160a060020a03831660009081526001602081815260408084208585526002019091529091206005018054879260ff19909116908360038111156112e457fe5b02179055507ff5f24a1076534f6f9f4222697fb06dde0123693df905bd676ad64f43d73ec07886866040518083815260200182600381111561132257fe5b60ff1681526020019250505060405180910390a1505050505050565b60023360009081526020819052604090205460ff16600281111561135e57fe5b1461136857600080fd5b600160a060020a03821660009081526001602081905260409091206004018054839260ff199091169083600281111561139d57fe5b02179055507ffa68b90eaad7c7fc339c801e2338d7ea6f8135e4d710c20a7898de2982e3021682826040518083600160a060020a0316600160a060020a031681526020018260028111156113ed57fe5b60ff1681526020019250505060405180910390a15050565b600060013360009081526020819052604090205460ff16600281111561142757fe5b1461143157600080fd5b5060006002600160a060020a03861660009081526020819052604090205460ff16600281111561145d57fe5b1461146757600080fd5b600160a060020a038086166000908152600460209081526040808320549387168352600190915290206003015461149c611874565b60c060405190810160405280600254815260200188815260200187600160a060020a03168152602001868152602001838152602001600060038111156114de57fe5b9052600160a060020a038716600090815260016020818152604080842087855260020182529092208351815582840151805194955085949193611526938501929101906117f6565b50604082015160028201805473ffffffffffffffffffffffffffffffffffffffff1916600160a060020a03909216919091179055606082015180516115759160038401916020909101906117f6565b506080820151600482015560a082015160058201805460ff1916600183600381111561159d57fe5b02179055505050600160a060020a038816600090815260036020908152604080832086845282529091208251815581830151805184936115e49260018501929101906117f6565b50604082015160028201805473ffffffffffffffffffffffffffffffffffffffff1916600160a060020a03909216919091179055606082015180516116339160038401916020909101906117f6565b506080820151600482015560a082015160058201805460ff1916600183600381111561165b57fe5b02179055505050600160a060020a0380871660008181526001602081815260408084209783016003909801889055948d1680845260048252858420988301988990556002805490930190925584519182529381019290925260808284018181528b51918401919091528a517f60e56e9cbbc474b66433a92cfcd40fb523e7fc374de5360a9d6e2610046f1a64948d948d948d948d9492939092606085019260a0860192890191908190849084905b83811015611721578181015183820152602001611709565b50505050905090810190601f16801561174e5780820380516001836020036101000a031916815260200191505b50838103825284518152845160209182019186019080838360005b83811015611781578181015183820152602001611769565b50505050905090810190601f1680156117ae5780820380516001836020036101000a031916815260200191505b50965050505050505060405180910390a1506001979650505050505050565b60408051608081018252600080825260606020830181905292820181905290918201905b905290565b828054600181600116156101000203166002900490600052602060002090601f016020900481019282601f1061183757805160ff1916838001178555611864565b82800160010185558215611864579182015b82811115611864578251825591602001919060010190611849565b506118709291506118b9565b5090565b60c06040519081016040528060008152602001606081526020016000600160a060020a031681526020016060815260200160008152602001600060038111156117f157fe5b6118d391905b8082111561187057600081556001016118bf565b9056fea165627a7a72305820ee844dae12c6b39fcec7033bea9e4ddbbd07085ca93dde29647fd961b644cda50029",
  "source": "pragma solidity ^0.5.1;\r\n\r\nimport \"./IterableMapping.sol\";\r\n\r\ncontract Passport{\r\n    \r\n    enum Identity {VaccinatedOne,Hospital,Authority}\r\n    //1.mapping(address=>identity(H/A/O)) to verify his access, used to modifier\r\n    mapping(address=>Identity) identity;\r\n\r\n    //2.mapping(address=>passport)\r\n    mapping(address=>PersonalPassport) personalPassport; \r\n\r\n    enum TotalStatus{haventVaccinated, waitingVaccinationAndAuthority, vaccinated}\r\n    //3.PersonalPassport: \r\n    struct PersonalPassport{\r\n        address ID;\r\n        string name;\r\n        mapping(uint=>Injection) injectionInfo;\r\n        uint injectionIndex;\r\n        TotalStatus totalStatus;\r\n    }\r\n\r\n    \r\n    \r\n    enum InjectionStatus{injected, authorithed, outdated, unvalid}\r\n    //4.Injection:\r\n    struct Injection{\r\n        uint256 InjectionID;\r\n        string kind;\r\n        address ID;\r\n        string date;\r\n        uint injectedIndex;\r\n        InjectionStatus injectionStatus;\r\n    }\r\n    uint256 InjectionID;\r\n\r\n    //5.To show specific Auhority the injection he is responsible for and not authorithed \r\n    mapping(address=>mapping(uint=>Injection)) waitingList;\r\n    mapping(address=>uint) numbersInWaitingList;\r\n\r\n    modifier isHospital(){\r\n        require(identity[msg.sender]==Identity.Hospital);\r\n        _;\r\n    }\r\n    modifier isAuthority(){\r\n        require(identity[msg.sender]==Identity.Authority);\r\n        _;\r\n    }\r\n    modifier havingAccess(){\r\n        require((identity[msg.sender]==Identity.Authority)||(identity[msg.sender]==Identity.Hospital));\r\n        _;\r\n    }\r\n\r\n\r\n    event LookUpEvent(address addr);\r\n    event deliverPassportEvent(address addr, string name);\r\n    event grantHospitalEvent(address addr);\r\n    event grantAuthorityEvent(address addr);\r\n    event HospitalSubmitInfomationEvent(address auth, string kind, address ID, string date);\r\n    event AuthorityGetUncheckedInjectionListEvent();\r\n    event AuthorityDisposeUncheckedInjectionEvent(uint i, InjectionStatus proposal);\r\n    event AuthorityChangeToatalStatusEvent(address addr, TotalStatus totalStatus);\r\n    event VaccinatedOneGetHisPassportEvent();\r\n    event VaccinatedOneGetListEvent();\r\n    event showSpecificInjectionEvent(uint i);\r\n\r\n\r\n    constructor() public{\r\n        identity[msg.sender]=Identity.Authority;\r\n        numbersInWaitingList[msg.sender]=0;\r\n        //Auhority 0xd16AAecB76318c363F5dfb6bA192163a3695d4d8\r\n        //Hospital 0x9a6536b20EE818899C7026925AAfA27A656c32f8\r\n        //user     0x7Ddf0cd1f0D562F73C27F662ca389c72553B5470\r\n        //user2    0x4004b49c9DC5217b752b586894c5269f37d917b8\r\n        \r\n        //identity[0x9a6536b20EE818899C7026925AAfA27A656c32f8]=Identity.Hospital;\r\n        InjectionID=0;\r\n    }\r\n    \r\n    function testt() public view returns(uint n){\r\n        \r\n        n=2;\r\n        \r\n    }\r\n\r\n\r\n\r\n    function LookUp(address addr) public view havingAccess returns(address ID, string memory name, uint injectedIndex,TotalStatus totalStatus){\r\n        //emit LookUpEvent(addr);\r\n        ID = personalPassport[addr].ID;\r\n        name = personalPassport[addr].name;\r\n        injectedIndex = personalPassport[addr].injectionIndex;\r\n        totalStatus = personalPassport[addr].totalStatus;\r\n    }\r\n    function deliverPassport(address addr,string memory _name) public havingAccess{\r\n        PersonalPassport memory apassport=PersonalPassport({ID:addr,name:_name,injectionIndex:0,totalStatus:TotalStatus.haventVaccinated});\r\n        personalPassport[addr]=apassport;\r\n        emit deliverPassportEvent(addr, _name);\r\n    }\r\n    function grantHospitals(address addr) public isAuthority{\r\n        identity[addr]=Identity.Hospital;\r\n        emit grantHospitalEvent(addr);\r\n    }\r\n    function grantAuthority(address addr) public isAuthority{\r\n        identity[addr]=Identity.Authority;\r\n        emit grantAuthorityEvent(addr);\r\n    }\r\n\r\n    function HospitalSubmitInfomation(address authorityAddr, string memory kind, address ID,string memory date) public isHospital returns(bool success){\r\n        success=false;\r\n        require(identity[authorityAddr]==Identity.Authority);\r\n        \r\n        uint number = numbersInWaitingList[authorityAddr];\r\n        uint injectedNumber=personalPassport[ID].injectionIndex;\r\n        \r\n        Injection memory injection=Injection(InjectionID,kind,ID,date,injectedNumber,InjectionStatus.injected);\r\n\r\n        \r\n        personalPassport[ID].injectionInfo[injectedNumber]=injection;\r\n        waitingList[authorityAddr][number]=injection;\r\n\r\n        number=number+1;\r\n        injectedNumber=injectedNumber+1;\r\n        personalPassport[ID].injectionIndex=injectedNumber;\r\n        numbersInWaitingList[authorityAddr]=number;\r\n\r\n        InjectionID++;\r\n\r\n        emit HospitalSubmitInfomationEvent(authorityAddr, kind, ID, date);\r\n        success=true;\r\n    }\r\n\r\n\r\n    \r\n    function AuthorityGetUncheckedInjectionList() public view isAuthority returns(uint[] memory flist,uint cnt,uint totalCnt,uint herenumbersinWaitingList){\r\n        uint[] memory list=new uint[](100);\r\n        totalCnt=0;\r\n        cnt=0;\r\n        for(uint i=0;i<numbersInWaitingList[msg.sender];i++){\r\n            if(waitingList[msg.sender][i].injectionStatus==InjectionStatus.injected){\r\n               list[cnt]=i;\r\n               cnt++;\r\n            }\r\n            totalCnt++;\r\n        }\r\n        flist=new uint[](cnt);\r\n        for(uint i=0;i<cnt;i++){\r\n            flist[i]=list[i];\r\n        }\r\n        herenumbersinWaitingList = numbersInWaitingList[msg.sender];\r\n        //emit AuthorityGetUncheckedInjectionListEvent();\r\n    }\r\n\r\n    function AuthorityDisposeUncheckedInjection(uint i, InjectionStatus proposal) public isAuthority {\r\n        Injection memory injection=waitingList[msg.sender][i];\r\n        address ID=injection.ID;\r\n        uint256 InjectionID=injection.InjectionID;\r\n        uint injectedIndex=injection.injectedIndex;\r\n\r\n        waitingList[msg.sender][i].injectionStatus=proposal;\r\n\r\n        personalPassport[ID].injectionInfo[injectedIndex].injectionStatus=proposal;\r\n        emit AuthorityDisposeUncheckedInjectionEvent(i, proposal);\r\n\r\n    }\r\n\r\n    function AuthorityChangeToatalStatus(address addr,TotalStatus totalStatus) public isAuthority{\r\n        personalPassport[addr].totalStatus=totalStatus;\r\n        emit AuthorityChangeToatalStatusEvent(addr, totalStatus);\r\n    }\r\n\r\n    function VaccinatedOneGetHisPassport() public view returns(address _ID, string memory _name, TotalStatus _totalStatus){\r\n        //emit VaccinatedOneGetHisPassportEvent();\r\n        \r\n        _ID=personalPassport[msg.sender].ID;\r\n        _name=personalPassport[msg.sender].name;\r\n        _totalStatus=personalPassport[msg.sender].totalStatus;\r\n    } \r\n\r\n    function VaccinatedOneGetList() public view returns(uint[] memory list){\r\n        uint nums=personalPassport[msg.sender].injectionIndex;\r\n        list=new uint[](nums);\r\n        for(uint i=0;i<nums;i++){\r\n            list[i]=i;\r\n        }\r\n        //emit VaccinatedOneGetListEvent();\r\n    }\r\n\r\n    function showSpecificInjection(uint i) public view returns(uint256 _InjectionID,string memory _kind,address _ID,string memory _date,uint _injectedIndex,InjectionStatus _InjectionStatus){\r\n        //emit showSpecificInjectionEvent(i);\r\n        \r\n        _InjectionID=personalPassport[msg.sender].injectionInfo[i].InjectionID;\r\n        _kind=personalPassport[msg.sender].injectionInfo[i].kind;\r\n        _ID=personalPassport[msg.sender].injectionInfo[i].ID;\r\n        _date=personalPassport[msg.sender].injectionInfo[i].date;\r\n        _injectedIndex=personalPassport[msg.sender].injectionInfo[i].injectedIndex;\r\n        _InjectionStatus=personalPassport[msg.sender].injectionInfo[i].injectionStatus;\r\n    }\r\n\r\n}\r\n\r\n\r\n\r\n\r\n\r\n\r\n",
  "sourcePath": "E:\\ethereum\\VaccinePassportDapp\\contracts\\Passport.sol",
  "compiler": {
    "name": "solc",
    "version": "0.5.1+commit.c8a2cb62.Emscripten.clang"
  },
  "schemaVersion": "3.4.3",
  "updatedAt": "2021-09-17T13:01:24.058Z",
  "devdoc": {
    "methods": {}
  },
  "userdoc": {
    "methods": {}
  }
}