{
  "contractName": "TestIterableMap",
  "abi": [
    {
      "constant": false,
      "inputs": [],
      "name": "testIterableMap",
      "outputs": [],
      "payable": false,
      "stateMutability": "nonpayable",
      "type": "function"
    }
  ],
  "bytecode": "0x608060405234801561001057600080fd5b506107fd806100206000396000f3fe60806040526004361061003a577c01000000000000000000000000000000000000000000000000000000006000350463d230a0d5811461003f575b600080fd5b34801561004b57600080fd5b50610054610056565b005b6040805160e260020a632f0ad0170281526000600482018190526024820181905260448201819052915173__IterableMapping_______________________9263bc2b405c9260648082019391829003018186803b1580156100b757600080fd5b505af41580156100cb573d6000803e3d6000fd5b50506040805160e260020a632f0ad01702815260006004820181905260016024830152606460448301819052925173__IterableMapping_______________________955063bc2b405c9450828401939192909190829003018186803b15801561013457600080fd5b505af4158015610148573d6000803e3d6000fd5b50506040805160e260020a632f0ad0170281526000600482018190526002602483015260c86044830152915173__IterableMapping_______________________945063bc2b405c935060648083019392829003018186803b1580156101ad57600080fd5b505af41580156101c1573d6000803e3d6000fd5b50506040805160e260020a632f0ad0170281526000600482018190526002602483015260c86044830152915173__IterableMapping_______________________945063bc2b405c935060648083019392829003018186803b15801561022657600080fd5b505af415801561023a573d6000803e3d6000fd5b50506040805160e260020a632f0ad0170281526000600482018190526003602483015261012c6044830152915173__IterableMapping_______________________945063bc2b405c935060648083019392829003018186803b1580156102a057600080fd5b505af41580156102b4573d6000803e3d6000fd5b506000925050505b604080517fdeb3d89600000000000000000000000000000000000000000000000000000000815260006004820152905173__IterableMapping_______________________9163deb3d896916024808301926020929190829003018186803b15801561032757600080fd5b505af415801561033b573d6000803e3d6000fd5b505050506040513d602081101561035157600080fd5b50518110156104af576040805160e160020a6368d54f3f02815260006004820181905260248201849052915173__IterableMapping_______________________9163d1aa9e7e916044808301926020929190829003018186803b1580156103b857600080fd5b505af41580156103cc573d6000803e3d6000fd5b505050506040513d60208110156103e257600080fd5b5051604080517f732a2ccf0000000000000000000000000000000000000000000000000000000081526000600482015273ffffffffffffffffffffffffffffffffffffffff831660248201529051919250606484029173__IterableMapping_______________________9163732a2ccf916044808301926020929190829003018186803b15801561047357600080fd5b505af4158015610487573d6000803e3d6000fd5b505050506040513d602081101561049d57600080fd5b5051146104a657fe5b506001016102bc565b50604080517f4c60db9c00000000000000000000000000000000000000000000000000000000815260006004820181905260016024830152915173__IterableMapping_______________________92634c60db9c9260448082019391829003018186803b15801561052057600080fd5b505af4158015610534573d6000803e3d6000fd5b5050604080517fdeb3d89600000000000000000000000000000000000000000000000000000000815260006004820152905173__IterableMapping_______________________935063deb3d89692506024808301926020929190829003018186803b1580156105a357600080fd5b505af41580156105b7573d6000803e3d6000fd5b505050506040513d60208110156105cd57600080fd5b50516003146105d857fe5b6040805160e160020a6368d54f3f02815260006004820181905260248201819052915173__IterableMapping_______________________9163d1aa9e7e916044808301926020929190829003018186803b15801561063657600080fd5b505af415801561064a573d6000803e3d6000fd5b505050506040513d602081101561066057600080fd5b505173ffffffffffffffffffffffffffffffffffffffff161461067f57fe5b6040805160e160020a6368d54f3f0281526000600482015260016024820152905160039173__IterableMapping_______________________9163d1aa9e7e91604480820192602092909190829003018186803b1580156106df57600080fd5b505af41580156106f3573d6000803e3d6000fd5b505050506040513d602081101561070957600080fd5b505173ffffffffffffffffffffffffffffffffffffffff161461072857fe5b6040805160e160020a6368d54f3f02815260006004820152600260248201819052915173__IterableMapping_______________________9163d1aa9e7e916044808301926020929190829003018186803b15801561078657600080fd5b505af415801561079a573d6000803e3d6000fd5b505050506040513d60208110156107b057600080fd5b505173ffffffffffffffffffffffffffffffffffffffff16146107cf57fe5b56fea165627a7a7230582074e724273be5f0585bd5046192b657ff97861d4a2a0871a3ff0b2d560b7227d30029",
  "source": "// SPDX-License-Identifier: MIT\r\npragma solidity ^0.5.1;\r\n\r\nlibrary IterableMapping {\r\n    // Iterable mapping from address to uint;\r\n    struct Map {\r\n        address[] keys;\r\n        mapping(address => uint) values;\r\n        mapping(address => uint) indexOf;\r\n        mapping(address => bool) inserted;\r\n    }\r\n\r\n    function get(Map storage map, address key) public view returns (uint) {\r\n        return map.values[key];\r\n    }\r\n\r\n    function getKeyAtIndex(Map storage map, uint index) public view returns (address) {\r\n        return map.keys[index];\r\n    }\r\n\r\n    function size(Map storage map) public view returns (uint) {\r\n        return map.keys.length;\r\n    }\r\n\r\n    function set(\r\n        Map storage map,\r\n        address key,\r\n        uint val\r\n    ) public {\r\n        if (map.inserted[key]) {\r\n            map.values[key] = val;\r\n        } else {\r\n            map.inserted[key] = true;\r\n            map.values[key] = val;\r\n            map.indexOf[key] = map.keys.length;\r\n            map.keys.push(key);\r\n        }\r\n    }\r\n\r\n    function remove(Map storage map, address key) public {\r\n        if (!map.inserted[key]) {\r\n            return;\r\n        }\r\n\r\n        delete map.inserted[key];\r\n        delete map.values[key];\r\n\r\n        uint index = map.indexOf[key];\r\n        uint lastIndex = map.keys.length - 1;\r\n        address lastKey = map.keys[lastIndex];\r\n\r\n        map.indexOf[lastKey] = index;\r\n        delete map.indexOf[key];\r\n\r\n        map.keys[index] = lastKey;\r\n        map.keys.pop();\r\n    }\r\n}\r\n\r\ncontract TestIterableMap {\r\n    using IterableMapping for IterableMapping.Map;\r\n\r\n    IterableMapping.Map private map;\r\n\r\n    function testIterableMap() public {\r\n        map.set(address(0), 0);\r\n        map.set(address(1), 100);\r\n        map.set(address(2), 200); // insert\r\n        map.set(address(2), 200); // update\r\n        map.set(address(3), 300);\r\n\r\n        for (uint i = 0; i < map.size(); i++) {\r\n            address key = map.getKeyAtIndex(i);\r\n\r\n            assert(map.get(key) == i * 100);\r\n        }\r\n\r\n        map.remove(address(1));\r\n\r\n        // keys = [address(0), address(3), address(2)]\r\n        assert(map.size() == 3);\r\n        assert(map.getKeyAtIndex(0) == address(0));\r\n        assert(map.getKeyAtIndex(1) == address(3));\r\n        assert(map.getKeyAtIndex(2) == address(2));\r\n    }\r\n}",
  "sourcePath": "E:\\ethereum\\VaccinePassportDapp\\contracts\\IterableMapping.sol",
  "compiler": {
    "name": "solc",
    "version": "0.5.1+commit.c8a2cb62.Emscripten.clang"
  },
  "schemaVersion": "3.4.3",
  "updatedAt": "2021-09-15T10:23:39.613Z",
  "devdoc": {
    "methods": {}
  },
  "userdoc": {
    "methods": {}
  }
}